:020000040000FA
:020000000528D1
:040002000034003492
:06000A0083161F30850083
:10001000003086008312861006110613861306141C
:100020008519102805181628061412280610851898
:100030001B288614122886100519122886173B22C1
:100040003B223B223B223B223B223B223B223B22C8
:100050003B223B223B223B223B223B223B223B22B8
:100060003B223B223B223B223B223B223B223B22A8
:100070003B223B223B223B223B223B223B223B2298
:100080003B223B223B223B223B223B223B223B2288
:100090003B223B223B223B223B223B223B223B2278
:1000A0003B223B223B223B223B223B223B223B2268
:1000B0003B223B223B223B223B223B223B223B2258
:1000C0003B223B223B223B223B223B223B223B2248
:1000D0003B223B223B223B223B223B223B223B2238
:1000E0003B223B223B223B223B223B223B223B2228
:1000F0003B223B223B223B223B223B223B223B2218
:100100003B223B223B223B223B223B223B223B2207
:100110003B223B223B223B223B223B223B223B22F7
:100120003B223B223B223B223B223B223B223B22E7
:100130003B223B223B223B223B223B223B223B22D7
:100140003B223B223B223B223B223B223B223B22C7
:100150003B223B223B223B223B223B223B223B22B7
:100160003B223B223B223B223B223B223B223B22A7
:100170003B223B223B223B223B223B223B223B2297
:100180003B223B223B223B223B223B223B223B2287
:100190003B223B223B223B223B223B223B223B2277
:1001A0003B223B223B223B223B223B223B223B2267
:1001B0003B223B223B223B223B223B223B223B2257
:1001C0003B223B223B223B223B223B223B223B2247
:1001D0003B223B223B223B223B223B223B223B2237
:1001E0003B223B223B223B223B223B223B223B2227
:1001F0003B223B223B223B223B223B223B223B2217
:100200003B223B223B223B223B223B223B223B2206
:1002100006173B223B223B223B223B223B223B2236
:100220003B223B223B223B223B223B223B223B22E6
:100230003B223B223B223B223B223B223B223B22D6
:100240003B223B223B223B223B223B223B223B22C6
:100250003B223B223B223B223B223B223B223B22B6
:100260003B223B223B223B223B223B223B223B22A6
:100270003B223B223B223B223B223B223B223B2296
:100280003B223B223B223B223B223B223B223B2286
:100290003B223B223B223B223B223B223B223B2276
:1002A0003B223B223B223B223B223B223B223B2266
:1002B0003B223B223B223B223B223B223B223B2256
:1002C0003B223B223B223B223B223B223B223B2246
:1002D0003B223B223B223B223B223B223B223B2236
:1002E0003B223B223B223B223B223B223B223B2226
:1002F0003B223B223B223B223B223B22861306131E
:100300003B224C2206113B224C2206153B224C225A
:1003100006113B224C2206153B224C2206113B22A1
:100320004C2206153B224C2206113B224C2206157C
:100330003B224C2206113B224C2206153B224C222A
:1003400006113B224C2206153B224C2206113B2271
:100350004C2206153B224C2206113B224C2206154C
:100360003B224C2206113B224C2206153B224C22FA
:1003700006113B224C2206153B224C2206113B2241
:100380004C2206150528861706173B223B223B22E6
:100390003B223B223B223B223B223B223B223B2275
:1003A0003B223B223B223B223B223B223B223B2265
:1003B0003B223B223B223B223B223B223B223B2255
:1003C0003B223B223B223B223B223B223B223B2245
:1003D0003B223B223B223B223B223B223B223B2235
:1003E0003B223B223B223B223B223B223B223B2225
:1003F0003B223B223B223B223B223B223B223B2215
:100400003B223B223B223B223B223B223B223B2204
:100410003B223B223B223B223B223B223B223B22F4
:100420003B223B223B223B223B223B223B223B22E4
:100430003B223B223B223B223B223B223B223B22D4
:100440003B223B223B223B223B223B223B223B22C4
:100450003B223B223B223B223B223B223B223B22B4
:100460003B223B223B223B223B223B223B223B22A4
:100470003B223B220528EF308C00E8308D006400E1
:10048000412A422A64008D0B3F2A8C0B3D2A482AC0
:10049000492A4A2A64000800061505190800C329DC
:02400E00F13F80
:00000001FF
